:020000040800F2
:1000000000000220ED0F00081D0600081F06000872
:10001000210600082306000825060008000000004D
:10002000000000000000000000000000270600089B
:1000300029060008000000002B0600082D06000815
:100040003D1000083D1000083D1000083D1000085C
:100050003D1000083D1000083D1000083D1000084C
:100060003D1000083D1000083D1000083D1000083C
:100070003D1000083D1000083D1000083D1000082C
:100080003D1000083D1000083D1000083D1000081C
:100090003D1000083D1000083D1000083D1000080C
:1000A0003D1000083D1000083D1000083D100008FC
:1000B0003D1000083D1000083D1000083D100008EC
:1000C0003D1000083D1000083D1000083D100008DC
:1000D0003D1000083D1000083D1000083D100008CC
:1000E0003D1000083D1000083D1000083D100008BC
:1000F0003D1000083D1000083D1000083D100008AC
:100100003D1000083D1000083D1000083D1000089B
:100110003D1000083D1000083D1000083D1000088B
:100120003D1000083D1000083D1000083D1000087B
:100130003D1000083D1000083D1000083D1000086B
:100140003D1000083D1000083D1000083D1000085B
:100150003D1000083D1000083D1000083D1000084B
:100160003D1000083D1000083D1000083D1000083B
:100170003D1000083D1000083D1000080000000080
:080180003D1000083D100008CD
:1001880010B5054C237833B9044B13B10448AFF3C9
:1001980000800123237010BD0C0000200000000027
:1001A8009810000808B5034B1BB103490348AFF387
:1001B800008008BD00000000100000209810000812
:1001C80053B94AB9002908BF00281CBF4FF0FF31B6
:1001D8004FF0FF3000F074B9ADF1080C6DE904CEB2
:1001E80000F006F8DDF804E0DDE9022304B070470A
:1001F8002DE9F047089D04468E46002B4DD18A42D2
:10020800944669D9B2FA82F252B101FA02F3C2F104
:10021800200120FA01F10CFA02FC41EA030E944095
:100228004FEA1C48210CBEFBF8F61FFA8CF708FBB6
:1002380016E341EA034306FB07F199420AD91CEB8E
:10024800030306F1FF3080F01F81994240F21C81C0
:10025800023E63445B1AA4B2B3FBF8F008FB103308
:1002680044EA034400FB07F7A7420AD91CEB04043D
:1002780000F1FF3380F00A81A74240F2078164440D
:10028800023840EA0640E41B00261DB1D440002392
:10029800C5E900433146BDE8F0878B4209D9002DF6
:1002A80000F0EF800026C5E9000130463146BDE880
:1002B800F087B3FA83F6002E4AD18B4202D38242EA
:1002C80000F2F980841A61EB030301209E46002D99
:1002D800E0D0C5E9004EDDE702B9FFDEB2FA82F2EE
:1002E800002A40F09280A1EB0C014FEA1C471FFA4C
:1002F8008CFE0126200CB1FBF7F307FB131140EA33
:1003080001410EFB03F0884208D91CEB010103F1FF
:10031800FF3802D2884200F2CB804346091AA4B2C1
:10032800B1FBF7F007FB101144EA01440EFB00FE95
:10033800A64508D91CEB040400F1FF3102D2A645FA
:1003480000F2BB800846A4EB0E0440EA03409CE799
:10035800C6F12007B34022FA07FC4CEA030C20FA46
:1003680007F401FA06F31C43F9404FEA1C4900FA66
:1003780006F3B1FBF9F8200C1FFA8CFE09FB1811E3
:1003880040EA014108FB0EF0884202FA06F20BD956
:100398001CEB010108F1FF3A80F08880884240F2A6
:1003A8008580A8F102086144091AA4B2B1FBF9F0EA
:1003B80009FB101144EA014100FB0EFE8E4508D9E5
:1003C8001CEB010100F1FF346CD28E456AD902386A
:1003D800614440EA0840A0FB0294A1EB0E01A1424F
:1003E800C846A64656D353D05DB1B3EB080261EBBD
:1003F8000E0101FA07F722FA06F3F1401F43C5E997
:10040800007100263146BDE8F087C2F12003D840CC
:100418000CFA02FC21FA03F3914001434FEA1C470E
:100428001FFA8CFEB3FBF7F007FB10360B0C43EA00
:10043800064300FB0EF69E4204FA02F408D91CEBB0
:10044800030300F1FF382FD29E422DD902386344AE
:100458009B1B89B2B3FBF7F607FB163341EA03414E
:1004680006FB0EF38B4208D91CEB010106F1FF389D
:1004780016D28B4214D9023E6144C91A46EA004694
:1004880038E72E46284605E70646E3E61846F8E626
:100498004B45A9D2B9EB020864EB0C0E0138A3E76F
:1004A8004646EAE7204694E74046D1E7D0467BE750
:1004B800023B614432E7304609E76444023842E7C8
:1004C800704700BF30B589B00024039404940594A4
:1004D8000694079400941D4B1A6B42F010021A639D
:1004E8001A6B02F010020092009A01941A6B42F003
:1004F80008021A631A6B02F008020192019A029428
:100508001A6B42F001021A631B6B03F0010302939A
:10051800029B0F4D22464FF48051284600F099FC6B
:10052800082303930494059403A90A4800F098FB50
:100538004FF480530393012304930594069403A96D
:10054800284600F08DFB09B030BD00BF00380240DE
:10055800000C02400010024072B6FEE700B595B0EC
:100568003022002108A800F08BFD00230393049398
:100578000593069307930193184A116C41F0805133
:100588001164126C02F080520192019A0293144A8B
:10059800116841F480411160126802F480420292AD
:1005A800029A0222089201220B9210220C920E93B8
:1005B80008A800F057F868B90F23039300210491A5
:1005C80005910691079103A800F09AFA20B915B091
:1005D8005DF804FBFFF7C0FFFFF7BEFF00380240DD
:1005E8000070004008B500F0C7FCFFF7B7FFFFF741
:1005F80069FF0821054800F025FC0028F9D04FF4D0
:100608008051034800F02BFCF3E700BF00100240C4
:10061800000C0240FEE7FEE7FEE7FEE7FEE7704754
:100628007047704708B500F0C1FC08BD82B00021D2
:1006380000910B4B5A6C42F480425A645A6C02F493
:1006480080420092009A01911A6C42F080521A641A
:100658001B6C03F080530193019B02B0704700BFED
:1006680000380240002800F0E08170B582B00446EE
:10067800036813F0010F3BD09F4B9B6803F00C03FA
:10068800042B2CD09C4B9B6803F00C03082B21D027
:100698006368B3F5803F4FD0B3F5A02F52D0964B87
:1006A8001A6822F480321A601A6822F480221A60CA
:1006B8006368002B50D000F085FC05468E4B1B6804
:1006C80013F4003F14D100F07DFC401B6428F5D9D9
:1006D8000320B1E1884B5B6813F4800FD8D0864BB8
:1006E8001B6813F4003F03D06368002B00F09F8160
:1006F800236813F0020F54D07F4B9B6813F00C0F44
:100708003ED07D4B9B6803F00C03082B33D0E36885
:10071800002B68D0794B01221A6000F053FC054683
:10072800754B1B6813F0020F54D100F04BFC401BB3
:100738000228F5D903207FE16F4A136843F4803318
:100748001360B5E76C4B1A6842F480221A601A6885
:1007580042F480321A60ABE700F034FC0546664B81
:100768001B6813F4003FC3D000F02CFC401B642826
:10077800F5D9032060E1604B5B6813F4800FC6D1A4
:100788005D4B1B6813F0020F03D0E368012B40F0A8
:100798005081594A136823F0F803216943EAC103D9
:1007A8001360236813F0080F42D063696BB3534B8F
:1007B8000122C3F8802E00F005FC05464E4B5B6F06
:1007C80013F0020F34D100F0FDFB401B0228F5D9CD
:1007D800032031E1484A136823F0F803216943EA0A
:1007E800C1031360DDE7454B00221A6000F0EAFB05
:1007F8000546414B1B6813F0020FD2D000F0E2FB14
:10080800401B0228F5D9032016E13C4B0022C3F80F
:10081800802E00F0D7FB0546374B5B6F13F0020FB5
:1008280006D000F0CFFB401B0228F5D9032003E1D6
:10083800236813F0040F77D02F4B1B6C13F0805FE5
:1008480033D1002301932C4B1A6C42F080521A6466
:100858001B6C03F080530193019B0125284B1B68F7
:1008680013F4807F23D0A368012B34D0052B38D014
:10087800214B1A6F22F001021A671A6F22F0040244
:100888001A67A368002B3DD000F09CFB06461A4B64
:100898001B6F13F0020F46D100F094FB801B41F24E
:1008A80088339842F3D90320C6E00025D6E7144AD6
:1008B800136843F48073136000F084FB0646104B02
:1008C8001B6813F4807FCED100F07CFB801B0228CC
:1008D800F5D90320B0E0084A136F43F0010313670A
:1008E800CFE7054B1A6F42F004021A671A6F42F0FD
:1008F80001021A67C5E700BF0038024000004742FE
:100908000070004000F05EFB0646524B1B6F13F070
:10091800020F08D000F056FB801B41F28833984242
:10092800F3D9032088E0EDB9A369002B00F0838098
:10093800484A926802F00C02082A51D0022B17D0BC
:10094800454B00221A6600F03DFB0446414B1B68EC
:1009580013F0007F42D000F035FB001B0228F5D9C8
:10096800032069E03B4A136C23F080531364DBE7F0
:10097800394B00221A6600F025FB0546354B1B68EB
:1009880013F0007F06D000F01DFB401B0228F5D9AC
:10099800032051E0E369226A1343626A43EA82133F
:1009A800A26A5208013A43EA0243E26A43EA02634E
:1009B800284A5360284B01221A6600F003FB0446BC
:1009C800244B1B6813F0007F06D100F0FBFA001BD4
:1009D8000228F5D903202FE000202DE000202BE08D
:1009E800012B2BD01B4B5B6803F48001E269914219
:1009F80026D103F03F02216A8A4223D1616A47F671
:100A0800C0721A40B2EB811F1ED103F44031A26AB2
:100A18005208013AB1EB024F18D103F07063E26A51
:100A2800B3EB026F14D1002006E0012070470120CB
:100A380002E0012000E0002002B070BD0120FBE7C9
:100A48000120F9E70120F7E70120F5E70120F3E7A6
:100A58000120F1E7003802400000474208B5254B65
:100A68009B6803F00C03042B3FD0082B3FD1214B8C
:100A78005A6802F03F025B6813F4800F12D01D4BD6
:100A88005968C1F388111C480023A1FB0001FFF736
:100A980097FB184B5B68C3F3014301335B00B0FB62
:100AA800F3F025E0134B5968C1F3881C4FEA4C1149
:100AB800B1EB0C006EEB0E0E4FEA8E1343EA906317
:100AC8008101091A63EB0E03DB0043EA5173C90085
:100AD80011EB0C0C43F10003990200234FEA8C2020
:100AE80041EA9C51FFF76CFBD3E7034800E0034859
:100AF80008BD00BF0038024040787D010024F400A2
:100B0800002800F09B8070B50D4604464F4B1B68CB
:100B180003F007038B4208D2CBB24C4A1370136818
:100B280003F007038B4240F08B80236813F0020F19
:100B380017D013F0040F04D0454A936843F4E053E8
:100B48009360236813F0080F04D0414A936843F474
:100B5800604393603E4A936823F0F003A1680B4317
:100B68009360236813F0010F32D06368012B21D002
:100B78009A1E012A25D9364A126812F0020F61D04E
:100B880033498A6822F0030213438B6000F01AFA93
:100B980006462F4B9B6803F00C036268B3EB820F89
:100BA80016D000F00FFA801B41F288339842F0D932
:100BB800032042E0264A126812F4003FE0D10120E7
:100BC8003BE0234A126812F0007FD9D1012034E0BB
:100BD8001E4B1B6803F00703AB4207D9EAB21B4B55
:100BE8001A701B6803F00703AB422DD1236813F07A
:100BF800040F06D0164A936823F4E053E1680B43C8
:100C08009360236813F0080F07D0114A936823F400
:100C18006043216943EAC1039360FFF71FFF0C4B50
:100C28009B68C3F303130B4AD35CD8400A4B186084
:100C38000A4B186800F07AF9002070BD012070474F
:100C48000120FAE70120F8E70120F6E7003C02401E
:100C580000380240B01000080800002004000020FE
:100C680000230F2B00F2E48070B582B060E0856845
:100C78005E000324B44025EA0405CC68B4402C4344
:100C88008460456825EA02054C68C4F300129A405E
:100C98002A4342605AE0DC08083450F8246003F024
:100CA800070295000F22AA4026EA020E0A69AA4006
:100CB80042EA0E0240F824205CE0072200E000220D
:100CC80002FA0EF22A4302345A4D45F824205A4AB1
:100CD80014686FEA0C0224EA0C054E6816F4803F8B
:100CE80001D04CEA0405544C2560646802EA040506
:100CF8004E6816F4003F01D04CEA04054E4C65607E
:100D0800A46802EA04054E6816F4801F01D04CEA74
:100D18000405494CA560E46822404D6815F4001F9D
:100D280001D04CEA0402444CE26001330F2B7DD819
:100D380001229A400C6804EA020C32EA0404F4D155
:100D48004C6804F00304013C012C90D94A6802F075
:100D58000302032A09D0C4685D000322AA4024EADA
:100D680002048A68AA402243C2604A6802F0030269
:100D7800022A90D004684FEA430E032202FA0EF2C8
:100D880024EA02044A6802F0030202FA0EF222433D
:100D980002604A6812F4403FC7D000220192274AF5
:100DA800546C44F480445464526C02F480420192BE
:100DB800019A9C08A51C1F4A52F8255003F003020B
:100DC8004FEA820E0F2202FA0EF225EA02051C4AA9
:100DD80090423FF474AF02F5806290421AD002F557
:100DE8008062904218D002F58062904216D002F5D7
:100DF8008062904214D002F58062904212D002F5CF
:100E08008062904210D002F5806290423FF455AF64
:100E1800082255E7012253E7022251E703224FE750
:100E280004224DE705224BE7062249E702B070BDD0
:100E3800704700BF00380140003C014000380240C4
:100E4800000002400369194201D0012070470020C8
:100E580070470AB18161704709048161704743692D
:100E680001EA030221EA030141EA02418161704774
:100E7800074AD36823F4E0631B041B0C000200F448
:100E8800E060034343F0BF6343F40033D36070472B
:100E980000ED00E000B5194BDB68C3F30223C3F192
:100EA800070CBCF1040F28BF4FF0040C03F1040E2B
:100EB800BEF1060F18D9033B4FF0FF3E0EFA0CFCAB
:100EC80021EA0C0199400EFA03F322EA03031943BD
:100ED80000280BDB0901C9B200F1604000F5614050
:100EE80080F800135DF804FB0023E5E700F00F002D
:100EF8000901C9B2024B1954F4E700BF00ED00E044
:100F080014ED00E00138B0F1807F0BD24FF0E02300
:100F18005861054AF02182F82310002098610722C1
:100F28001A6170470120704700ED00E010B50446D3
:100F38000E4B18784FF47A73B3FBF0F30C4A106831
:100F4800B0FBF3F0FFF7DEFF68B90F2C01D90120E1
:100F58000AE0002221464FF0FF30FFF79BFF054BC8
:100F68001C60002000E0012010BD00BF0000002030
:100F7800080000200400002008B50B4B1A6842F452
:100F880000721A601A6842F480621A601A6842F4A1
:100F980080721A600320FFF76BFF0F20FFF7C6FF70
:100FA800FFF744FB002008BD003C0240034A1168DB
:100FB800034B1B780B441360704700BF28000020C8
:100FC80000000020014B1868704700BF280000206F
:100FD800034AD2F8883043F47003C2F88830704767
:100FE80000ED00E0DFF834D00D480E490E4A00232A
:100FF80002E0D458C4500433C4188C42F9D30B4AC5
:101008000B4C002301E013600432A242FBD3FFF72C
:10101800DFFF00F011F8FFF7E5FA70470000022043
:10102800000000200C000020D01000080C00002058
:101038002C000020FEE7000070B50D4D0D4C641B20
:10104800A4100026A64209D10B4D0C4C00F020F844
:10105800641BA4100026A64205D170BD55F8043BB8
:1010680098470136EEE755F8043B98470136F2E712
:10107800C8100008C8100008C8100008CC100008E4
:1010880002440346934200D1704703F8011BF9E775
:10109800F8B500BFF8BC08BC9E467047F8B500BF5D
:0810A800F8BC08BC9E4670472D
:1010B0000000000000000000010203040607080908
:0810C00038F1FF7F0100000080
:0410C800AD0100086E
:0410CC00890100088E
:0C10D00001000000100000000024F400EB
:0400000508000FEDF3
:00000001FF
